:100D0F00543A00483A004C3A00573A0054696D651E
:100D1F003A004343570043572000205243200041DD
:100D2F0075746F004E756D004D00543A3E00483A91
:100D3F003C004C3A3E00573A3C00536574205465D2
:100D4F006D70204D696E005365742048756D692074
:100D5F004D617800536574204C69676874204D6944
:100D6F006E00536574205761746572204D61780071
:100D7F005365742054696D652056616C7565000468
:0F0D8F000602030109080C080901030206040CFF
:100FCE00017700017600016A0002730000025E00E4
:100FDE00000268001E02600000026D001E02660024
:100FEE00000271000A02640000026F003C026200FF
:100FFE0000026B0000015B05017500C100C181C1DB
:05100E0002025C006419
:100F7900C2941212A87F327E001211DC1212907FE5
:100F8900327E001211DC1212447F327E001211DC13
:100F99001212BC7F327E001211DC12075D120EB2F2
:100FA90012056D120A247F0A7E001211DC0574E510
:100FB9007470020573D39488E573941340DCE4F5E7
:050FC90073F57480D5F2
:0B11D100900D8EEB93F5B0AF5DAE5CAF
:1011DC00D3EF9400EE940040147D6E7C00ED1D70F6
:0D11EC00011CED4C70F7EF1F70E61E80E354
:0111F90022D3
:10075D00E4FF120F238F77EF70030208E624FE608B
:10076D0025146035146035147003020844240460A8
:10077D00030208E60576D3E57694057480948040EF
:10078D0015E4F5768010056AD3E56A9402748094B9
:10079D00804003E4F56A021290B20122E5761460FE
:1007AD001714602C14604114605614606B2405609E
:1007BD00030208E6D200D202C3E5729463E5719498
:1007CD000040030208E6740A2572F572E40208740B
:1007DD00C3E5709463E56F940040030208E6740A64
:1007ED002570F570E402088CC3E5699463E568949F
:1007FD000040030208E6740A2569F569E40208A4BD
:10080D00C3E56E9463E56D940040030208E6740A37
:10081D00256EF56EE40208BCC3E5639418E5629499
:10082D000040030208E6740A2563F563E43562F5BA
:10083D0062F56B85636C22E57614601814602D14D7
:10084D00604214605714606C240560030208E6C210
:10085D0000D20222D3E5729400E5719400407A74BF
:10086D00F62572F57274FF3571F57122D3E570942A
:10087D0000E56F9400406274F62570F57074FF35D5
:10088D006FF56F22D3E5699400E5689400404A74D2
:10089D00F62569F56974FF3568F56822D3E56E9420
:1008AD0000E56D9400403274F6256EF56E74FF35DB
:1008BD006DF56D22D3E5639400E5629400401A74E2
:1008CD00F62563F56374FF3562F562FEAF637C0058
:0A08DD007D061204318E6B8F6C2231
:100EB200AE73AF747C007D32120443ED4C7061FF5F
:100EC200120C76AC06AD07E412032AE4FBFA797F32
:100ED200784312020FE4FBFA79C878421201061233
:100EE20003638E608F617F01120C76AC06AD07E45E
:100EF20012032AE4FBFA797F784312020FE4FBFA29
:100F020079C878421201061203638E5E8F5F7524E0
:100F1200007525007526647B007A007966120B1F26
:010F220022AC
:10056D00E5761470030206F014700302070514708B
:10057D000302071A14700302072F147003020744B5
:10058D002405600302075CE56A700302062924FE58
:10059D00700302068604600302075C7BFF7A0D7907
:1005AD000FE4FD7F011210DEAB67AA667D027F01AD
:1005BD0012117D7BFF7A0D7912E4FD7F021210DEA0
:1005CD00AE64AF657C007D0A120431AA06AB077DCF
:1005DD00027F021211FA7BFF7A0D79157D0A7F01D8
:1005ED001210DEAE5EAF5F7C007D0A120431AA06EA
:1005FD00AB077D0C7F011211A77BFF7A0D79187D5A
:10060D000A7F021210DEAE60AF617C007D0A12041B
:10061D0031AA06AB077D0C7F0202121F7BFF7A0DFC
:10062D00791BE4FD7F011210DEAB6CAA6B7D057F9B
:10063D0001120BD47BFF3000067A0D792180047AEC
:10064D000D79257D077F021210DE7BFF3001067AC2
:10065D000D792980047A0D792EE4FD7F021210DECA
:10066D007BFF7A0D79337D0E7F011210DEE575FB70
:10067D003395E0FA7D0E0207577BFF7A0D7937E44B
:10068D00FD7F011210DE7BFF7A0D79397D027F012E
:10069D001210DEAB72AA717D057F0112101C7BFF5B
:1006AD007A0D793D7D027F021210DEAB70AA6F7D4F
:1006BD00057F0212101C7BFF7A0D79417D0C7F01A5
:1006CD001210DEAB69AA687D0F7F0112101C7BFF33
:1006DD007A0D79457D0C7F021210DEAB6EAA6D7D11
:1006ED000F80677BFF7A0D79497D027F011210DE45
:1006FD00AB72AA717D0780527BFF7A0D79567D0210
:10070D007F011210DEAB70AA6F7D07803D7BFF7AF3
:10071D000D79637D017F011210DEAB69AA687D073B
:10072D0080287BFF7A0D79717D027F011210DEAB7F
:10073D006EAA6D7D0780137BFF7A0D797F7D017F1A
:10074D00011210DEAB63AA627D077F0212101C221C
:100A2400300177300274C202300024C3E55B648075
:100A3400F8E57564809850170575E4FBEBC39408DA
:100A4400748094805032900D961211D40B80ED2056
:100A54000026AF75EF3395E0FED3EF9400EE64808B
:100A640094804014E4FBEBC3940874809480500693
:100A74001211D10B80F01575D3E55B6480F8E57530
:100A84006480984005855B758010AF75EF3395E001
:100A9400C3648094805003E4F575E576707CC3E507
:100AA400679572E5669571402DD3E5659570E564AB
:100AB400956F5022C3E55F9569E55E95684017D34D
:100AC400E561956EE560956D500CE5634562604A9D
:100AD400E56C456B7044E5756040D3E561956EE562
:100AE40060956D4002D294E4FAAF75EF3395E0FE61
:100AF400EAC39FEE6480F87480985015E4FBEBC35E
:100B040094087480948050061211D10B80F00A80EE
:0A0B1400D8C202E4F575C201C294D4
:010B1E0022B4
:06101300010900010801C3
:100F2300EF6003750801E508603730A20C30A309B0
:100F330030A40630A00320A1287F0A7E001211DC12
:100F4300E4F50820A2037F012220A3037F022220CD
:100F5300A4037F032220A0037F042220A1157F0581
:100F63002230A20F30A30C30A40930A00630A10315
:050F73007508017F007C
:010F78002256
:100C7600E4FDFCFEFBC296D2970000C29500D29618
:100C86000000EF7010C296D29700D2960000C2966E
:100C9600C29700800EC296D2970000D2960000C27C
:100CA60096D29700D29600C29600D297E4FFEFC381
:100CB600940874809480501700EE25E0FED29600CA
:100CC60000C2960030970543060180000F80DFE4DE
:100CD600FFEFC39408748094805017EBC313FB3066
:100CE6009705430380800000D2960000C296000F4D
:100CF60080DFEEB50306AF037C00AD070000D2959A
:080D0600D297D296AE04AF05AE
:010D0E0022C2
:1010A800E4FE7D80EDD39400748094804017ED5F5A
:1010B8006004D2918002C291D290000000C290EDEB
:1010C800C313FD80DFD291D290A291E433000000D7
:0510D800C290D291FF5F
:0110DD0022F0
:10111400E4FED2917D80EDD39400748094804010DD
:10112400D290309103ED4206C290EDC313FD80E6E8
:10113400EF24FFB39291D290000000C2900000000F
:04114400D291AF068F
:011148002284
:10125E00D291C29000D29000C29100C290000000C4
:09126E00D29000D29100C290223E
:10124400D291C290E4FFEFC3940974809480500754
:0A125400D290C2900F80EF02125EEC
:060E2A008B318A3289338E
:100E3000E4F538F53912125EE537146007047018CE
:100E40007F0380027F051210A8EF3395E0FEEF25A7
:100E500039F539EE3538F538900000AF82AE83E4CD
:100E6000FCFD7BFF7AFFF9F8D31204C540063091F0
:100E700003A380E73091080539E539700205387F12
:100E800001121114AB31AA32A933EF1203FD7F0115
:100E9000121114AB31AA32A933900001EF12040FE2
:100EA000E4FF121114AB34AA35A936EF1203FDAFDB
:010EB0003908
:010EB100221E
:0608E7008B318A328933D7
:1008ED00E4F53AF5397538807537C0753E54753D68
:1008FD00E3753C25753B3D7542A27541E775403B5F
:10090D00753FB675460A7545D775442375433C75D5
:10091D004AAC7549C57548A77547381204DB8F4E2B
:10092D008E4D8D4C8C4BAB34AA35A9361204DB8F12
:10093D00528E518D508C4F7F0A7ED77D237C3CABE0
:10094D0052AA51A950A84F120106E4FBFA7920785A
:10095D00C21200158F5A8E598D588C57AF4EAE4D11
:10096D00AD4CAC4BAB42AA41A940A83F120106AB1E
:10097D004EAA4DA94CA84B120106C004C005C006D5
:10098D00C007AF4EAE4DAD4CAC4BAB3EAA3DA93CF6
:10099D00A83B120106D003D002D001D000120015E1
:1009AD00AB3AAA39A938A8371200158F568E558D36
:1009BD00548C53E4FFFE7DC87C42AB56AA55A95416
:1009CD00A8531202AC600D400BE4F556F555755465
:1009DD00C87553427FCD7ECC7DCC7C3DAB56AA55A0
:1009ED00A954A8531202AC500C7556CD7555CC7543
:1009FD0054CC75533DAF5AAE59AD58AC57AB34AA24
:100A0D0035A9361204FBAF56AE55AD54AC53AB31D0
:070A1D00AA32A9330204FB19
:060B1F008B218A228923CC
:100B2500E4F527F534753500753628F537FB7A0079
:100B3500792D120E2AEF2527F52775340075350016
:100B45007536287537017B007A007929120E2AEF50
:100B55002527F5276003021244AC29AD2AE41203C8
:100B65002A8F2C8E2B8D2A8C29AC2DAD2EE41203C9
:100B75002A8F308E2F8D2E8C2D753400753500758E
:100B8500362D7B007A0079291208E7E4FFFE7D20E7
:100B95007C41AB30AA2FA92EA82D120106120363A2
:100BA500AB21AA22A923EE8FF01204987F337E335E
:100BB5007D537CC0AB2CAA2BA92AA829120015129B
:0E0BC5000363AB24AA25A926EE8FF012049834
:010BD30022FF
:02101900C10311
:1012BC005389F0438901758CDB758AFFD28CD2A9D6
:0312CC00D2AF227C
:03000B0002114996
:04114900C0E0C0D072
:10114D00758CDB758AFF050BE50B7002050AC394E0
:10115D0064E50A94004014750A00750B00E56C45B2
:0B116D006B6008E56C156C7002156BE0
:05117800D0D0D0E032F0
:101277002020202020202020202020202020202067
:091287002020202020202020005E
:1012CF007580FFC2A5D2A6C2A7D2A72087F5C2A755
:0112DF0022EC
:101069007C007D64AF03AE021204437C007D0A124A
:101079000443ED2430FF1210987D0A7C00AF03AEC3
:0F108900021204437C007D0A120443ED2430FF61
:101098001212CFC2A78F80D2A5C2A6D2A7C2A722FA
:1012E0001212CFC2A78F80C2A5C2A6D2A7C2A722C0
:1010DE008B218A228923EF64017005ED2480800321
:1010EE00ED24C0FF1212E0AB21AA22A9231203E4C1
:1010FE0060130523E5237002052214F91203E4FFA1
:06110E0012109880E2229D
:100BD400EF64017005ED24808003ED24C0FF121240
:100BE400E07C0E7D10AF03AE021204437C007D0A4C
:100BF40012108A7C0E7D101210867F3A1210987C97
:100C04000E7D10AF03AE021204437E007F3CCFCDB5
:100C1400CFCECCCE1204437C007D0A12108A7C0E07
:100C24007D10AF03AE021204437E007F3CCFCDCFD4
:100C3400CECCCE12108A7F3A1210987C007D3CAF45
:100C440003AE021204437E007F0ACFCDCFCECCCEBA
:100C540012108AAE02AF037C007D3C1204437E0076
:100C64007F0ACFCDCFCECCCE120443ED2430FF0289
:020C74001098D6
:10117D00EF64017005ED24808003ED24C0FF121291
:10118D00E01210697F2E121098AE02AF0312108D6F
:0A119D007FDF1210987F43021098C4
:1011FA00EF64017005ED24808003ED24C0FF121214
:10120A00E01210697F2E121098AE02AF0312108DF1
:05121A007F2502109881
:1011A700EF64017005ED24808003ED24C0FF121267
:1011B700E01210697F2E121098AE02AF0312108D45
:0A11C7007F4C1210987F78021098F8
:10121F00EF64017005ED24808003ED24C0FF1212EE
:10122F00E01210697F2E121098AE02AF0312108DCC
:05123F007F250210985C
:10101C00EF64017005ED24808003ED24C0FF1212F3
:10102C00E0D3EB94E7EA940340077C037DE81210CD
:10103C0086D3EB9463EA940040057D64121084D34C
:10104C00EB9409EA94004003121082AE02AF031233
:0D105C00108D7F201210981210980210982D
:101290007BFF7A127977E4FD7F011210DE7BFF7A03
:0812A0001279777F020210DED3
:1012A8007F381212E07F0C1212E07F061212E07FE4
:0412B800010212E03D
:10000E000203CFE86480F8E933E83360110460F04E
:10001E00ED33EC337009E8FCE9FDEAFEEBFF220458
:10002E0060DED3EB9FEA9EE99DE8C2E78CF0C2F753
:10003E0095F0400CE8CCF8E9CDF9EACEFAEBCFFB1F
:10004E0012039A85D0F05804700320D5B3E80470DB
:10005E00075002B2D50203D992D5EC0460F7E4CC76
:10006E00C0E0C398F8603B94186008400DD0E0FBE8
:10007E000203B1E4FBFAC9FC8028E830E406E4C9C7
:10008E00FBE4CAFCE830E305E4C9CACBFCE854073C
:10009E006010F8C3E913F9EA13FAEB13FBEC13FC47
:1000AE00D8F130F52FC3E49CFCEF9BFFEE9AFEEDEA
:1000BE0099FDD0E0FBEF4E4D4C701222DB03020394
:1000CE00D6EC2CFCEF33FFEE33FEED33FDED30E7D7
:1000DE00EB0203B1EF2BFFEE3AFEED39FDD0E0FB64
:1000EE0050130BBB00030203D9ED13FDEE13FEEF0D
:0800FE0013FFEC13FC0203B137
:10010600EC4D6011E8497017ED33EC3304600DE4F3
:10011600FCFFFEFD22E933E8330470F80203CF1238
:10012600039A58046009E4CC248150062850090239
:1001360003D92840030203D6C0E0EB4A7044B980D5
:1001460006D0E0FB0203C5EF4E701CBD8008EBFF36
:10015600EAFEE9FD80EBE98DF0A4FEE5F00201EF91
:10016600E9CDF9EAFEEBFFEF89F0A4FCE5F0CE89D4
:10017600F0A42EFFE435F0CD89F0A42DFEE435F091
:100186008067EF4E7005BD80D780C3EF8BF0A4ACBF
:10019600F0EE8BF0A42CFCE435F0F8EF8AF0A42CFA
:1001A600E5F038FCE433CB8DF0A42CFCE5F03BF80D
:1001B600EE8AF0A42CFCE5F038F8E433CF89F0A4FD
:1001C6002CFCE5F038CF3400CE89F0A42FFFE5F003
:1001D6003EFEE433C98DF0A42EFEE5F039CD8AF05B
:1001E600A42FFFE5F03EFEE43DFD33D0E0FB5007D3
:1001F6000BBB000F0203D9EC2CFCEF33FFEE33FEF2
:06020600ED33FD0203B11F
:10020C000203D9EC5D046005E8590470030203CFC6
:10021C0012039A580460F6EC4860F2EC7004FDFE90
:10022C00FF22C860DB2481C85009C39860025006C5
:10023C000203D69850CAF582E9294B4A7005AB8265
:10024C000203C575F0007C1A7880C3EF9BEE9AED23
:10025C0099400DC3EF9BFFEE9AFEED99FDE842F03D
:10026C00DC23ACF0D0E0FFD0E0FED0E0FDAB822090
:10027C00E7101BEB60BAEC2CFCEF33FFEE33FEED1A
:10028C0033FD0203B1E803F830E705C0F075F00068
:10029C00EF2FFFEE33FEED33FD40B830E7C280AAFE
:1002AC0074F8CC6480CCC86480C8F58204604FC3F9
:1002BC00EB9FF5F0EA9E42F0E99D42F0E89C45F098
:1002CC00603C501DE5825FFFE582D313CB5BCBF422
:1002DC002B5582FB50280ABA002409B9002008804B
:1002EC001DE5825BFBE582D313CF5FCFF4C3132FE5
:1002FC005582FF50090EBE00050DBD00010CC3EB6D
:10030C009FF5F0EA9E42F0E99D42F0E89C45F060D2
:09031C0007CC4820E701B3EC22F4
:1003250075F020800E75F010800575F0087D007E53
:10033500007F003392D530D5031204B7EC3340105B
:10034500EF33FFEE33FEED33FDEC33FCD5F0ED225C
:0E035500E5F0247EA2D513CC92E7CDCEFF2298
:10036300EDD2E7CD33EC3392D524814006E4FFFE92
:10037300FDFC22FCE4CFCECDCC24E0501174FF80F1
:10038300EDC3CC13CCCD13CDCE13CECF13CF04708E
:07039300F030D5DE0204B7D3
:10039A00E9D2E7C933E833F892D5EDD2E7CD33ECA9
:0703AA0033FC5002B2D52222
:1003B100EC30E7100FBF000C0EBE00080DBD0004AD
:1003C1000BEB6014A2D5EB13FCED92E7FD2274FF59
:1003D100FCFDFEFF22E480F8A2D574FF13FC7D80B2
:0303E100E480EFC6
:03000000020D9E50
:0C0D9E00787FE4F6D8FD758177020DE542
:1003E400BB010689828A83E0225002E722BBFE0217
:0903F400E32289828A83E493224A
:1003FD00BB010689828A83F0225002F722BBFE01DF
:02040D00F322D8
:10040F00F8BB010DE58229F582E5833AF583E8F023
:10041F00225006E92582C8F622BBFE05E92582C8CF
:02042F00F222B7
:10043100EF8DF0A4A8F0CF8CF0A428CE8DF0A42EDF
:02044100FE2299
:10044300BC000BBE0029EF8DF084FFADF022E4CC9D
:10045300F875F008EF2FFFEE33FEEC33FCEE9DEC66
:10046300984005FCEE9DFE0FD5F0E9E4CEFD22EDAC
:10047300F8F5F0EE8420D21CFEADF075F008EF2FF6
:10048300FFED33FD4007985006D5F0F222C398FDE7
:050493000FD5F0EA2284
:10049800BB010A89828A83F0E5F0A3F0225006F7AF
:0F04A80009A7F01922BBFE06F3E5F009F31922AC
:0E04B700C3E49FFFE49EFEE49DFDE49CFC2256
:1004C500EB9FF5F0EA9E42F0E99D42F0EC6480C8AE
:0604D50064809845F0224E
:1004DB00BB010789828A830205215005E9F80205D1
:1004EB0015BBFE05E9F802052D89828A83020539C1
:1004FB00BB010789828A830205555005E9F802057D
:0A050B0049BBFE05E9F80205612274
:100DAA00020F79E493A3F8E493A34003F68001F2D7
:100DBA0008DFF48029E493A3F85407240CC8C3334A
:100DCA00C4540F4420C8834004F456800146F6DF19
:100DDA00E4800B0102040810204080900FCEE47ECC
:100DEA00019360BCA3FF543F30E509541FFEE4930E
:100DFA00A360010ECF54C025E060A840B8E493A3D5
:100E0A00FAE493A3F8E493A3C8C582C8CAC583CAFF
:100E1A00F0A3C8C582C8CAC583CADFE9DEE780BEB7
:01101B0000D4
:0C051500E6FC08E6FD08E6FE08E6FF2212
:0C052100E0FCA3E0FDA3E0FEA3E0FF224D
:0C052D00E2FC08E2FD08E2FE08E2FF220A
:10053900E493FC740193FD740293FE740393FF2208
:0C054900ECF608EDF608EEF608EFF622DE
:0C055500ECF0A3EDF0A3EEF0A3EFF02219
:0C056100ECF208EDF208EEF208EFF222D6
:00000001FF
